{
  "_format": "hh-sol-artifact-1",
  "contractName": "ScholarshipManager",
  "sourceName": "contracts/ScholarshipManager.sol",
  "abi": [
    {
      "inputs": [
        {
          "internalType": "address",
          "name": "_tokenAddress",
          "type": "address"
        }
      ],
      "stateMutability": "nonpayable",
      "type": "constructor"
    },
    {
      "inputs": [
        {
          "internalType": "address",
          "name": "owner",
          "type": "address"
        }
      ],
      "name": "OwnableInvalidOwner",
      "type": "error"
    },
    {
      "inputs": [
        {
          "internalType": "address",
          "name": "account",
          "type": "address"
        }
      ],
      "name": "OwnableUnauthorizedAccount",
      "type": "error"
    },
    {
      "anonymous": false,
      "inputs": [
        {
          "indexed": true,
          "internalType": "uint256",
          "name": "id",
          "type": "uint256"
        },
        {
          "indexed": false,
          "internalType": "uint256",
          "name": "index",
          "type": "uint256"
        },
        {
          "indexed": false,
          "internalType": "address",
          "name": "applicant",
          "type": "address"
        }
      ],
      "name": "ApplicationApproved",
      "type": "event"
    },
    {
      "anonymous": false,
      "inputs": [
        {
          "indexed": true,
          "internalType": "uint256",
          "name": "id",
          "type": "uint256"
        },
        {
          "indexed": true,
          "internalType": "address",
          "name": "applicant",
          "type": "address"
        },
        {
          "indexed": false,
          "internalType": "uint256",
          "name": "index",
          "type": "uint256"
        }
      ],
      "name": "Applied",
      "type": "event"
    },
    {
      "anonymous": false,
      "inputs": [
        {
          "indexed": true,
          "internalType": "address",
          "name": "previousOwner",
          "type": "address"
        },
        {
          "indexed": true,
          "internalType": "address",
          "name": "newOwner",
          "type": "address"
        }
      ],
      "name": "OwnershipTransferred",
      "type": "event"
    },
    {
      "anonymous": false,
      "inputs": [
        {
          "indexed": true,
          "internalType": "uint256",
          "name": "id",
          "type": "uint256"
        },
        {
          "indexed": false,
          "internalType": "uint256",
          "name": "index",
          "type": "uint256"
        },
        {
          "indexed": false,
          "internalType": "address",
          "name": "to",
          "type": "address"
        },
        {
          "indexed": false,
          "internalType": "uint256",
          "name": "amount",
          "type": "uint256"
        }
      ],
      "name": "Paid",
      "type": "event"
    },
    {
      "anonymous": false,
      "inputs": [
        {
          "indexed": true,
          "internalType": "uint256",
          "name": "id",
          "type": "uint256"
        },
        {
          "indexed": false,
          "internalType": "string",
          "name": "title",
          "type": "string"
        },
        {
          "indexed": false,
          "internalType": "uint256",
          "name": "amount",
          "type": "uint256"
        },
        {
          "indexed": false,
          "internalType": "uint256",
          "name": "slots",
          "type": "uint256"
        },
        {
          "indexed": false,
          "internalType": "uint256",
          "name": "deadline",
          "type": "uint256"
        }
      ],
      "name": "ScholarshipCreated",
      "type": "event"
    },
    {
      "inputs": [
        {
          "internalType": "uint256",
          "name": "",
          "type": "uint256"
        },
        {
          "internalType": "uint256",
          "name": "",
          "type": "uint256"
        }
      ],
      "name": "applications",
      "outputs": [
        {
          "internalType": "address",
          "name": "applicant",
          "type": "address"
        },
        {
          "internalType": "string",
          "name": "metadata",
          "type": "string"
        },
        {
          "internalType": "enum ScholarshipManager.Status",
          "name": "status",
          "type": "uint8"
        }
      ],
      "stateMutability": "view",
      "type": "function"
    },
    {
      "inputs": [
        {
          "internalType": "uint256",
          "name": "scholarshipId",
          "type": "uint256"
        },
        {
          "internalType": "string",
          "name": "metadata",
          "type": "string"
        }
      ],
      "name": "applyForScholarship",
      "outputs": [],
      "stateMutability": "nonpayable",
      "type": "function"
    },
    {
      "inputs": [
        {
          "internalType": "uint256",
          "name": "scholarshipId",
          "type": "uint256"
        },
        {
          "internalType": "uint256",
          "name": "index",
          "type": "uint256"
        }
      ],
      "name": "approveApplicant",
      "outputs": [],
      "stateMutability": "nonpayable",
      "type": "function"
    },
    {
      "inputs": [
        {
          "internalType": "string",
          "name": "title",
          "type": "string"
        },
        {
          "internalType": "uint256",
          "name": "amount",
          "type": "uint256"
        },
        {
          "internalType": "uint256",
          "name": "slots",
          "type": "uint256"
        },
        {
          "internalType": "uint256",
          "name": "deadline",
          "type": "uint256"
        }
      ],
      "name": "createScholarship",
      "outputs": [],
      "stateMutability": "nonpayable",
      "type": "function"
    },
    {
      "inputs": [],
      "name": "nextScholarshipId",
      "outputs": [
        {
          "internalType": "uint256",
          "name": "",
          "type": "uint256"
        }
      ],
      "stateMutability": "view",
      "type": "function"
    },
    {
      "inputs": [],
      "name": "owner",
      "outputs": [
        {
          "internalType": "address",
          "name": "",
          "type": "address"
        }
      ],
      "stateMutability": "view",
      "type": "function"
    },
    {
      "inputs": [
        {
          "internalType": "uint256",
          "name": "scholarshipId",
          "type": "uint256"
        },
        {
          "internalType": "uint256",
          "name": "index",
          "type": "uint256"
        }
      ],
      "name": "payApplicant",
      "outputs": [],
      "stateMutability": "nonpayable",
      "type": "function"
    },
    {
      "inputs": [],
      "name": "paymentToken",
      "outputs": [
        {
          "internalType": "contract IERC20",
          "name": "",
          "type": "address"
        }
      ],
      "stateMutability": "view",
      "type": "function"
    },
    {
      "inputs": [],
      "name": "renounceOwnership",
      "outputs": [],
      "stateMutability": "nonpayable",
      "type": "function"
    },
    {
      "inputs": [
        {
          "internalType": "uint256",
          "name": "",
          "type": "uint256"
        }
      ],
      "name": "scholarships",
      "outputs": [
        {
          "internalType": "uint256",
          "name": "id",
          "type": "uint256"
        },
        {
          "internalType": "string",
          "name": "title",
          "type": "string"
        },
        {
          "internalType": "uint256",
          "name": "amount",
          "type": "uint256"
        },
        {
          "internalType": "uint256",
          "name": "slots",
          "type": "uint256"
        },
        {
          "internalType": "uint256",
          "name": "deadline",
          "type": "uint256"
        },
        {
          "internalType": "uint256",
          "name": "totalApplicants",
          "type": "uint256"
        }
      ],
      "stateMutability": "view",
      "type": "function"
    },
    {
      "inputs": [
        {
          "internalType": "address",
          "name": "newOwner",
          "type": "address"
        }
      ],
      "name": "transferOwnership",
      "outputs": [],
      "stateMutability": "nonpayable",
      "type": "function"
    }
  ],
  "bytecode": "0x60806040523480156200001157600080fd5b5060405162002172380380620021728339818101604052810190620000379190620002a7565b33600073ffffffffffffffffffffffffffffffffffffffff168173ffffffffffffffffffffffffffffffffffffffff1603620000ad5760006040517f1e4fbdf7000000000000000000000000000000000000000000000000000000008152600401620000a49190620002ea565b60405180910390fd5b620000be816200017960201b60201c565b50600073ffffffffffffffffffffffffffffffffffffffff168173ffffffffffffffffffffffffffffffffffffffff160362000131576040517f08c379a0000000000000000000000000000000000000000000000000000000008152600401620001289062000368565b60405180910390fd5b80600160006101000a81548173ffffffffffffffffffffffffffffffffffffffff021916908373ffffffffffffffffffffffffffffffffffffffff160217905550506200038a565b60008060009054906101000a900473ffffffffffffffffffffffffffffffffffffffff169050816000806101000a81548173ffffffffffffffffffffffffffffffffffffffff021916908373ffffffffffffffffffffffffffffffffffffffff1602179055508173ffffffffffffffffffffffffffffffffffffffff168173ffffffffffffffffffffffffffffffffffffffff167f8be0079c531659141344cd1fd0a4f28419497f9722a3daafe3b4186f6b6457e060405160405180910390a35050565b600080fd5b600073ffffffffffffffffffffffffffffffffffffffff82169050919050565b60006200026f8262000242565b9050919050565b620002818162000262565b81146200028d57600080fd5b50565b600081519050620002a18162000276565b92915050565b600060208284031215620002c057620002bf6200023d565b5b6000620002d08482850162000290565b91505092915050565b620002e48162000262565b82525050565b6000602082019050620003016000830184620002d9565b92915050565b600082825260208201905092915050565b7f4469612063686920546f6b656e206b686f6e6720686f70206c65000000000000600082015250565b600062000350601a8362000307565b91506200035d8262000318565b602082019050919050565b60006020820190508181036000830152620003838162000341565b9050919050565b611dd8806200039a6000396000f3fe608060405234801561001057600080fd5b50600436106100a95760003560e01c80637a870b63116100715780637a870b63146101435780638da5cb5b14610175578063c6c08a5814610193578063d84c01b3146101af578063e7dd02d2146101cd578063f2fde38b146101e9576100a9565b80633013ce29146100ae57806339dc58c6146100cc5780633a2146b814610101578063715018a61461011d57806372b4f6fe14610127575b600080fd5b6100b6610205565b6040516100c39190610f93565b60405180910390f35b6100e660048036038101906100e19190610ff8565b61022b565b6040516100f8969594939291906110c4565b60405180910390f35b61011b6004803603810190610116919061112c565b6102ef565b005b610125610494565b005b610141600480360381019061013c919061112c565b6104a8565b005b61015d6004803603810190610158919061112c565b6107f6565b60405161016c93929190611204565b60405180910390f35b61017d6108f2565b60405161018a9190611242565b60405180910390f35b6101ad60048036038101906101a89190611392565b61091b565b005b6101b7610b05565b6040516101c491906113ee565b60405180910390f35b6101e760048036038101906101e29190611409565b610b0b565b005b61020360048036038101906101fe91906114b8565b610d3b565b005b600160009054906101000a900473ffffffffffffffffffffffffffffffffffffffff1681565b600360205280600052604060002060009150905080600001549080600101805461025490611514565b80601f016020809104026020016040519081016040528092919081815260200182805461028090611514565b80156102cd5780601f106102a2576101008083540402835291602001916102cd565b820191906000526020600020905b8154815290600101906020018083116102b057829003601f168201915b5050505050908060020154908060030154908060040154908060050154905086565b6102f7610dc1565b6001600381111561030b5761030a61118d565b5b6004600084815260200190815260200160002082815481106103305761032f611545565b5b906000526020600020906003020160020160009054906101000a900460ff1660038111156103615761036061118d565b5b146103a1576040517f08c379a0000000000000000000000000000000000000000000000000000000008152600401610398906115c0565b60405180910390fd5b60026004600084815260200190815260200160002082815481106103c8576103c7611545565b5b906000526020600020906003020160020160006101000a81548160ff021916908360038111156103fb576103fa61118d565b5b0217905550817f3d2e0693b8e181cfefbbbca8bbacf348ab5813516ca1ec12ef15710f48dd31bb8260046000868152602001908152602001600020848154811061044857610447611545565b5b906000526020600020906003020160000160009054906101000a900473ffffffffffffffffffffffffffffffffffffffff166040516104889291906115e0565b60405180910390a25050565b61049c610dc1565b6104a66000610e48565b565b6104b0610dc1565b60006004600084815260200190815260200160002082815481106104d7576104d6611545565b5b906000526020600020906003020190506000600360008581526020019081526020016000209050600260038111156105125761051161118d565b5b8260020160009054906101000a900460ff1660038111156105365761053561118d565b5b14610576576040517f08c379a000000000000000000000000000000000000000000000000000000000815260040161056d90611655565b60405180910390fd5b8060020154600160009054906101000a900473ffffffffffffffffffffffffffffffffffffffff1673ffffffffffffffffffffffffffffffffffffffff166370a08231306040518263ffffffff1660e01b81526004016105d69190611242565b602060405180830381865afa1580156105f3573d6000803e3d6000fd5b505050506040513d601f19601f82011682018060405250810190610617919061168a565b1015610658576040517f08c379a000000000000000000000000000000000000000000000000000000000815260040161064f90611703565b60405180910390fd5b60038260020160006101000a81548160ff021916908360038111156106805761067f61118d565b5b0217905550600160009054906101000a900473ffffffffffffffffffffffffffffffffffffffff1673ffffffffffffffffffffffffffffffffffffffff1663a9059cbb8360000160009054906101000a900473ffffffffffffffffffffffffffffffffffffffff1683600201546040518363ffffffff1660e01b815260040161070a929190611723565b6020604051808303816000875af1158015610729573d6000803e3d6000fd5b505050506040513d601f19601f8201168201806040525081019061074d9190611784565b61078c576040517f08c379a0000000000000000000000000000000000000000000000000000000008152600401610783906117fd565b60405180910390fd5b837f8a932cfa1f2c4405ecf83ef9b014d4e08b84019e45aac0cfa6936bc57668e425848460000160009054906101000a900473ffffffffffffffffffffffffffffffffffffffff1684600201546040516107e89392919061181d565b60405180910390a250505050565b6004602052816000526040600020818154811061081257600080fd5b9060005260206000209060030201600091509150508060000160009054906101000a900473ffffffffffffffffffffffffffffffffffffffff169080600101805461085c90611514565b80601f016020809104026020016040519081016040528092919081815260200182805461088890611514565b80156108d55780601f106108aa576101008083540402835291602001916108d5565b820191906000526020600020905b8154815290600101906020018083116108b857829003601f168201915b5050505050908060020160009054906101000a900460ff16905083565b60008060009054906101000a900473ffffffffffffffffffffffffffffffffffffffff16905090565b600060036000848152602001908152602001600020905042816004015411610978576040517f08c379a000000000000000000000000000000000000000000000000000000000815260040161096f906118a0565b60405180910390fd5b6004600084815260200190815260200160002060405180606001604052803373ffffffffffffffffffffffffffffffffffffffff168152602001848152602001600160038111156109cc576109cb61118d565b5b815250908060018154018082558091505060019003906000526020600020906003020160009091909190915060008201518160000160006101000a81548173ffffffffffffffffffffffffffffffffffffffff021916908373ffffffffffffffffffffffffffffffffffffffff1602179055506020820151816001019081610a549190611a62565b5060408201518160020160006101000a81548160ff02191690836003811115610a8057610a7f61118d565b5b02179055505050806005016000815480929190610a9c90611b63565b91905055503373ffffffffffffffffffffffffffffffffffffffff16837f77813f331a0748806a13ce2604421e1b5fbfbbc9d1f20751a8f218e3608965e760018460050154610aeb9190611bab565b604051610af891906113ee565b60405180910390a3505050565b60025481565b610b13610dc1565b428111610b55576040517f08c379a0000000000000000000000000000000000000000000000000000000008152600401610b4c90611c2b565b60405180910390fd5b60008284610b639190611c4b565b90506000600160009054906101000a900473ffffffffffffffffffffffffffffffffffffffff1673ffffffffffffffffffffffffffffffffffffffff166323b872dd3330856040518463ffffffff1660e01b8152600401610bc693929190611c8d565b6020604051808303816000875af1158015610be5573d6000803e3d6000fd5b505050506040513d601f19601f82011682018060405250810190610c099190611784565b905080610c4b576040517f08c379a0000000000000000000000000000000000000000000000000000000008152600401610c4290611d36565b60405180910390fd5b6040518060c0016040528060025481526020018781526020018681526020018581526020018481526020016000815250600360006002548152602001908152602001600020600082015181600001556020820151816001019081610caf9190611a62565b5060408201518160020155606082015181600301556080820151816004015560a082015181600501559050506002547fa9fe89ef393b19fc34bb09fcb22ac19652c470364a9a41fd7822884a394d239e87878787604051610d139493929190611d56565b60405180910390a260026000815480929190610d2e90611b63565b9190505550505050505050565b610d43610dc1565b600073ffffffffffffffffffffffffffffffffffffffff168173ffffffffffffffffffffffffffffffffffffffff1603610db55760006040517f1e4fbdf7000000000000000000000000000000000000000000000000000000008152600401610dac9190611242565b60405180910390fd5b610dbe81610e48565b50565b610dc9610f0c565b73ffffffffffffffffffffffffffffffffffffffff16610de76108f2565b73ffffffffffffffffffffffffffffffffffffffff1614610e4657610e0a610f0c565b6040517f118cdaa7000000000000000000000000000000000000000000000000000000008152600401610e3d9190611242565b60405180910390fd5b565b60008060009054906101000a900473ffffffffffffffffffffffffffffffffffffffff169050816000806101000a81548173ffffffffffffffffffffffffffffffffffffffff021916908373ffffffffffffffffffffffffffffffffffffffff1602179055508173ffffffffffffffffffffffffffffffffffffffff168173ffffffffffffffffffffffffffffffffffffffff167f8be0079c531659141344cd1fd0a4f28419497f9722a3daafe3b4186f6b6457e060405160405180910390a35050565b600033905090565b600073ffffffffffffffffffffffffffffffffffffffff82169050919050565b6000819050919050565b6000610f59610f54610f4f84610f14565b610f34565b610f14565b9050919050565b6000610f6b82610f3e565b9050919050565b6000610f7d82610f60565b9050919050565b610f8d81610f72565b82525050565b6000602082019050610fa86000830184610f84565b92915050565b6000604051905090565b600080fd5b600080fd5b6000819050919050565b610fd581610fc2565b8114610fe057600080fd5b50565b600081359050610ff281610fcc565b92915050565b60006020828403121561100e5761100d610fb8565b5b600061101c84828501610fe3565b91505092915050565b61102e81610fc2565b82525050565b600081519050919050565b600082825260208201905092915050565b60005b8381101561106e578082015181840152602081019050611053565b60008484015250505050565b6000601f19601f8301169050919050565b600061109682611034565b6110a0818561103f565b93506110b0818560208601611050565b6110b98161107a565b840191505092915050565b600060c0820190506110d96000830189611025565b81810360208301526110eb818861108b565b90506110fa6040830187611025565b6111076060830186611025565b6111146080830185611025565b61112160a0830184611025565b979650505050505050565b6000806040838503121561114357611142610fb8565b5b600061115185828601610fe3565b925050602061116285828601610fe3565b9150509250929050565b600061117782610f14565b9050919050565b6111878161116c565b82525050565b7f4e487b7100000000000000000000000000000000000000000000000000000000600052602160045260246000fd5b600481106111cd576111cc61118d565b5b50565b60008190506111de826111bc565b919050565b60006111ee826111d0565b9050919050565b6111fe816111e3565b82525050565b6000606082019050611219600083018661117e565b818103602083015261122b818561108b565b905061123a60408301846111f5565b949350505050565b6000602082019050611257600083018461117e565b92915050565b600080fd5b600080fd5b7f4e487b7100000000000000000000000000000000000000000000000000000000600052604160045260246000fd5b61129f8261107a565b810181811067ffffffffffffffff821117156112be576112bd611267565b5b80604052505050565b60006112d1610fae565b90506112dd8282611296565b919050565b600067ffffffffffffffff8211156112fd576112fc611267565b5b6113068261107a565b9050602081019050919050565b82818337600083830152505050565b6000611335611330846112e2565b6112c7565b90508281526020810184848401111561135157611350611262565b5b61135c848285611313565b509392505050565b600082601f8301126113795761137861125d565b5b8135611389848260208601611322565b91505092915050565b600080604083850312156113a9576113a8610fb8565b5b60006113b785828601610fe3565b925050602083013567ffffffffffffffff8111156113d8576113d7610fbd565b5b6113e485828601611364565b9150509250929050565b60006020820190506114036000830184611025565b92915050565b6000806000806080858703121561142357611422610fb8565b5b600085013567ffffffffffffffff81111561144157611440610fbd565b5b61144d87828801611364565b945050602061145e87828801610fe3565b935050604061146f87828801610fe3565b925050606061148087828801610fe3565b91505092959194509250565b6114958161116c565b81146114a057600080fd5b50565b6000813590506114b28161148c565b92915050565b6000602082840312156114ce576114cd610fb8565b5b60006114dc848285016114a3565b91505092915050565b7f4e487b7100000000000000000000000000000000000000000000000000000000600052602260045260246000fd5b6000600282049050600182168061152c57607f821691505b60208210810361153f5761153e6114e5565b5b50919050565b7f4e487b7100000000000000000000000000000000000000000000000000000000600052603260045260246000fd5b7f5472616e672074686169206b686f6e6720686f70206c65000000000000000000600082015250565b60006115aa60178361103f565b91506115b582611574565b602082019050919050565b600060208201905081810360008301526115d98161159d565b9050919050565b60006040820190506115f56000830185611025565b611602602083018461117e565b9392505050565b7f486f20736f20636875612064756f632064757965740000000000000000000000600082015250565b600061163f60158361103f565b915061164a82611609565b602082019050919050565b6000602082019050818103600083015261166e81611632565b9050919050565b60008151905061168481610fcc565b92915050565b6000602082840312156116a05761169f610fb8565b5b60006116ae84828501611675565b91505092915050565b7f436f6e747261637420686574207469656e000000000000000000000000000000600082015250565b60006116ed60118361103f565b91506116f8826116b7565b602082019050919050565b6000602082019050818103600083015261171c816116e0565b9050919050565b6000604082019050611738600083018561117e565b6117456020830184611025565b9392505050565b60008115159050919050565b6117618161174c565b811461176c57600080fd5b50565b60008151905061177e81611758565b92915050565b60006020828403121561179a57611799610fb8565b5b60006117a88482850161176f565b91505092915050565b7f43687579656e207469656e207468617420626169000000000000000000000000600082015250565b60006117e760148361103f565b91506117f2826117b1565b602082019050919050565b60006020820190508181036000830152611816816117da565b9050919050565b60006060820190506118326000830186611025565b61183f602083018561117e565b61184c6040830184611025565b949350505050565b7f4461207175612068616e206e6f7020686f20736f000000000000000000000000600082015250565b600061188a60148361103f565b915061189582611854565b602082019050919050565b600060208201905081810360008301526118b98161187d565b9050919050565b60008190508160005260206000209050919050565b60006020601f8301049050919050565b600082821b905092915050565b6000600883026119227fffffffffffffffffffffffffffffffffffffffffffffffffffffffffffffffff826118e5565b61192c86836118e5565b95508019841693508086168417925050509392505050565b600061195f61195a61195584610fc2565b610f34565b610fc2565b9050919050565b6000819050919050565b61197983611944565b61198d61198582611966565b8484546118f2565b825550505050565b600090565b6119a2611995565b6119ad818484611970565b505050565b5b818110156119d1576119c660008261199a565b6001810190506119b3565b5050565b601f821115611a16576119e7816118c0565b6119f0846118d5565b810160208510156119ff578190505b611a13611a0b856118d5565b8301826119b2565b50505b505050565b600082821c905092915050565b6000611a3960001984600802611a1b565b1980831691505092915050565b6000611a528383611a28565b9150826002028217905092915050565b611a6b82611034565b67ffffffffffffffff811115611a8457611a83611267565b5b611a8e8254611514565b611a998282856119d5565b600060209050601f831160018114611acc5760008415611aba578287015190505b611ac48582611a46565b865550611b2c565b601f198416611ada866118c0565b60005b82811015611b0257848901518255600182019150602085019450602081019050611add565b86831015611b1f5784890151611b1b601f891682611a28565b8355505b6001600288020188555050505b505050505050565b7f4e487b7100000000000000000000000000000000000000000000000000000000600052601160045260246000fd5b6000611b6e82610fc2565b91507fffffffffffffffffffffffffffffffffffffffffffffffffffffffffffffffff8203611ba057611b9f611b34565b5b600182019050919050565b6000611bb682610fc2565b9150611bc183610fc2565b9250828203905081811115611bd957611bd8611b34565b5b92915050565b7f446561646c696e652070686169206f2074756f6e67206c616900000000000000600082015250565b6000611c1560198361103f565b9150611c2082611bdf565b602082019050919050565b60006020820190508181036000830152611c4481611c08565b9050919050565b6000611c5682610fc2565b9150611c6183610fc2565b9250828202611c6f81610fc2565b91508282048414831517611c8657611c85611b34565b5b5092915050565b6000606082019050611ca2600083018661117e565b611caf602083018561117e565b611cbc6040830184611025565b949350505050565b7f4b686f6e67207468652072757420546f6b656e2e20567569206c6f6e67206b6960008201527f656d2074726120417070726f7665210000000000000000000000000000000000602082015250565b6000611d20602f8361103f565b9150611d2b82611cc4565b604082019050919050565b60006020820190508181036000830152611d4f81611d13565b9050919050565b60006080820190508181036000830152611d70818761108b565b9050611d7f6020830186611025565b611d8c6040830185611025565b611d996060830184611025565b9594505050505056fea2646970667358221220a36d2e46776492204cfcdd9cf4f30b20964d3d85904f5c329c5ceb3873cc300164736f6c63430008140033",
  "linkReferences": {},
  "deployedLinkReferences": {}
}